{
  "_format": "hh-sol-artifact-1",
  "contractName": "SecretBidSanctuary",
  "sourceName": "contracts/SecretBidSanctuary.sol",
  "abi": [
    {
      "inputs": [
        {
          "internalType": "address",
          "name": "_verifier",
          "type": "address"
        }
      ],
      "stateMutability": "nonpayable",
      "type": "constructor"
    },
    {
      "anonymous": false,
      "inputs": [
        {
          "indexed": true,
          "internalType": "uint256",
          "name": "propertyId",
          "type": "uint256"
        },
        {
          "indexed": true,
          "internalType": "address",
          "name": "winner",
          "type": "address"
        },
        {
          "indexed": false,
          "internalType": "uint32",
          "name": "winningBid",
          "type": "uint32"
        }
      ],
      "name": "AuctionEnded",
      "type": "event"
    },
    {
      "anonymous": false,
      "inputs": [
        {
          "indexed": true,
          "internalType": "uint256",
          "name": "bidId",
          "type": "uint256"
        },
        {
          "indexed": true,
          "internalType": "uint256",
          "name": "propertyId",
          "type": "uint256"
        },
        {
          "indexed": true,
          "internalType": "address",
          "name": "bidder",
          "type": "address"
        },
        {
          "indexed": false,
          "internalType": "uint32",
          "name": "amount",
          "type": "uint32"
        }
      ],
      "name": "BidPlaced",
      "type": "event"
    },
    {
      "anonymous": false,
      "inputs": [
        {
          "indexed": true,
          "internalType": "uint256",
          "name": "propertyId",
          "type": "uint256"
        },
        {
          "indexed": true,
          "internalType": "address",
          "name": "owner",
          "type": "address"
        },
        {
          "indexed": false,
          "internalType": "string",
          "name": "name",
          "type": "string"
        }
      ],
      "name": "PropertyListed",
      "type": "event"
    },
    {
      "anonymous": false,
      "inputs": [
        {
          "indexed": true,
          "internalType": "uint256",
          "name": "propertyId",
          "type": "uint256"
        },
        {
          "indexed": false,
          "internalType": "bool",
          "name": "isVerified",
          "type": "bool"
        }
      ],
      "name": "PropertyVerified",
      "type": "event"
    },
    {
      "anonymous": false,
      "inputs": [
        {
          "indexed": true,
          "internalType": "address",
          "name": "user",
          "type": "address"
        },
        {
          "indexed": false,
          "internalType": "uint32",
          "name": "reputation",
          "type": "uint32"
        }
      ],
      "name": "ReputationUpdated",
      "type": "event"
    },
    {
      "inputs": [
        {
          "internalType": "uint256",
          "name": "",
          "type": "uint256"
        }
      ],
      "name": "auctionResults",
      "outputs": [
        {
          "internalType": "euint32",
          "name": "winningBid",
          "type": "bytes32"
        },
        {
          "internalType": "address",
          "name": "winner",
          "type": "address"
        },
        {
          "internalType": "bool",
          "name": "isSettled",
          "type": "bool"
        },
        {
          "internalType": "uint256",
          "name": "settlementTime",
          "type": "uint256"
        }
      ],
      "stateMutability": "view",
      "type": "function"
    },
    {
      "inputs": [],
      "name": "bidCounter",
      "outputs": [
        {
          "internalType": "uint256",
          "name": "",
          "type": "uint256"
        }
      ],
      "stateMutability": "view",
      "type": "function"
    },
    {
      "inputs": [
        {
          "internalType": "address",
          "name": "",
          "type": "address"
        }
      ],
      "name": "bidderReputation",
      "outputs": [
        {
          "internalType": "euint32",
          "name": "",
          "type": "bytes32"
        }
      ],
      "stateMutability": "view",
      "type": "function"
    },
    {
      "inputs": [
        {
          "internalType": "uint256",
          "name": "",
          "type": "uint256"
        }
      ],
      "name": "bids",
      "outputs": [
        {
          "internalType": "euint32",
          "name": "bidId",
          "type": "bytes32"
        },
        {
          "internalType": "euint32",
          "name": "amount",
          "type": "bytes32"
        },
        {
          "internalType": "address",
          "name": "bidder",
          "type": "address"
        },
        {
          "internalType": "uint256",
          "name": "timestamp",
          "type": "uint256"
        },
        {
          "internalType": "bool",
          "name": "isRevealed",
          "type": "bool"
        }
      ],
      "stateMutability": "view",
      "type": "function"
    },
    {
      "inputs": [
        {
          "internalType": "uint256",
          "name": "propertyId",
          "type": "uint256"
        }
      ],
      "name": "endAuction",
      "outputs": [],
      "stateMutability": "nonpayable",
      "type": "function"
    },
    {
      "inputs": [
        {
          "internalType": "uint256",
          "name": "resultId",
          "type": "uint256"
        }
      ],
      "name": "getAuctionResultEncryptedData",
      "outputs": [
        {
          "internalType": "bytes32",
          "name": "winningBid",
          "type": "bytes32"
        }
      ],
      "stateMutability": "view",
      "type": "function"
    },
    {
      "inputs": [
        {
          "internalType": "uint256",
          "name": "resultId",
          "type": "uint256"
        }
      ],
      "name": "getAuctionResultInfo",
      "outputs": [
        {
          "internalType": "uint8",
          "name": "winningBid",
          "type": "uint8"
        },
        {
          "internalType": "address",
          "name": "winner",
          "type": "address"
        },
        {
          "internalType": "bool",
          "name": "isSettled",
          "type": "bool"
        },
        {
          "internalType": "uint256",
          "name": "settlementTime",
          "type": "uint256"
        }
      ],
      "stateMutability": "view",
      "type": "function"
    },
    {
      "inputs": [
        {
          "internalType": "uint256",
          "name": "bidId",
          "type": "uint256"
        }
      ],
      "name": "getBidEncryptedData",
      "outputs": [
        {
          "internalType": "bytes32",
          "name": "amount",
          "type": "bytes32"
        }
      ],
      "stateMutability": "view",
      "type": "function"
    },
    {
      "inputs": [
        {
          "internalType": "uint256",
          "name": "bidId",
          "type": "uint256"
        }
      ],
      "name": "getBidInfo",
      "outputs": [
        {
          "internalType": "uint8",
          "name": "amount",
          "type": "uint8"
        },
        {
          "internalType": "address",
          "name": "bidder",
          "type": "address"
        },
        {
          "internalType": "uint256",
          "name": "timestamp",
          "type": "uint256"
        },
        {
          "internalType": "bool",
          "name": "isRevealed",
          "type": "bool"
        }
      ],
      "stateMutability": "view",
      "type": "function"
    },
    {
      "inputs": [
        {
          "internalType": "address",
          "name": "bidder",
          "type": "address"
        }
      ],
      "name": "getBidderReputation",
      "outputs": [
        {
          "internalType": "uint8",
          "name": "",
          "type": "uint8"
        }
      ],
      "stateMutability": "view",
      "type": "function"
    },
    {
      "inputs": [
        {
          "internalType": "uint256",
          "name": "propertyId",
          "type": "uint256"
        }
      ],
      "name": "getPropertyEncryptedData",
      "outputs": [
        {
          "internalType": "bytes32",
          "name": "currentBid",
          "type": "bytes32"
        }
      ],
      "stateMutability": "view",
      "type": "function"
    },
    {
      "inputs": [
        {
          "internalType": "uint256",
          "name": "propertyId",
          "type": "uint256"
        }
      ],
      "name": "getPropertyInfo",
      "outputs": [
        {
          "internalType": "string",
          "name": "name",
          "type": "string"
        },
        {
          "internalType": "string",
          "name": "description",
          "type": "string"
        },
        {
          "internalType": "string",
          "name": "imageHash",
          "type": "string"
        },
        {
          "internalType": "uint32",
          "name": "reservePrice",
          "type": "uint32"
        },
        {
          "internalType": "uint32",
          "name": "currentBid",
          "type": "uint32"
        },
        {
          "internalType": "uint32",
          "name": "bidCount",
          "type": "uint32"
        },
        {
          "internalType": "bool",
          "name": "isActive",
          "type": "bool"
        },
        {
          "internalType": "bool",
          "name": "isVerified",
          "type": "bool"
        },
        {
          "internalType": "address",
          "name": "propertyOwner",
          "type": "address"
        },
        {
          "internalType": "address",
          "name": "highestBidder",
          "type": "address"
        },
        {
          "internalType": "uint256",
          "name": "startTime",
          "type": "uint256"
        },
        {
          "internalType": "uint256",
          "name": "endTime",
          "type": "uint256"
        }
      ],
      "stateMutability": "view",
      "type": "function"
    },
    {
      "inputs": [
        {
          "internalType": "address",
          "name": "propertyOwner",
          "type": "address"
        }
      ],
      "name": "getPropertyOwnerReputation",
      "outputs": [
        {
          "internalType": "uint8",
          "name": "",
          "type": "uint8"
        }
      ],
      "stateMutability": "view",
      "type": "function"
    },
    {
      "inputs": [
        {
          "internalType": "string",
          "name": "_name",
          "type": "string"
        },
        {
          "internalType": "string",
          "name": "_description",
          "type": "string"
        },
        {
          "internalType": "string",
          "name": "_imageHash",
          "type": "string"
        },
        {
          "internalType": "uint32",
          "name": "_reservePrice",
          "type": "uint32"
        },
        {
          "internalType": "uint256",
          "name": "_duration",
          "type": "uint256"
        }
      ],
      "name": "listProperty",
      "outputs": [
        {
          "internalType": "uint256",
          "name": "",
          "type": "uint256"
        }
      ],
      "stateMutability": "nonpayable",
      "type": "function"
    },
    {
      "inputs": [],
      "name": "owner",
      "outputs": [
        {
          "internalType": "address",
          "name": "",
          "type": "address"
        }
      ],
      "stateMutability": "view",
      "type": "function"
    },
    {
      "inputs": [
        {
          "internalType": "uint256",
          "name": "propertyId",
          "type": "uint256"
        },
        {
          "internalType": "externalEuint32",
          "name": "amount",
          "type": "bytes32"
        },
        {
          "internalType": "bytes",
          "name": "inputProof",
          "type": "bytes"
        }
      ],
      "name": "placeBid",
      "outputs": [
        {
          "internalType": "uint256",
          "name": "",
          "type": "uint256"
        }
      ],
      "stateMutability": "nonpayable",
      "type": "function"
    },
    {
      "inputs": [
        {
          "internalType": "uint256",
          "name": "",
          "type": "uint256"
        }
      ],
      "name": "properties",
      "outputs": [
        {
          "internalType": "euint32",
          "name": "propertyId",
          "type": "bytes32"
        },
        {
          "internalType": "uint32",
          "name": "reservePrice",
          "type": "uint32"
        },
        {
          "internalType": "euint32",
          "name": "currentBid",
          "type": "bytes32"
        },
        {
          "internalType": "uint32",
          "name": "bidCount",
          "type": "uint32"
        },
        {
          "internalType": "bool",
          "name": "isActive",
          "type": "bool"
        },
        {
          "internalType": "bool",
          "name": "isVerified",
          "type": "bool"
        },
        {
          "internalType": "string",
          "name": "name",
          "type": "string"
        },
        {
          "internalType": "string",
          "name": "description",
          "type": "string"
        },
        {
          "internalType": "string",
          "name": "imageHash",
          "type": "string"
        },
        {
          "internalType": "address",
          "name": "owner",
          "type": "address"
        },
        {
          "internalType": "address",
          "name": "highestBidder",
          "type": "address"
        },
        {
          "internalType": "uint256",
          "name": "startTime",
          "type": "uint256"
        },
        {
          "internalType": "uint256",
          "name": "endTime",
          "type": "uint256"
        }
      ],
      "stateMutability": "view",
      "type": "function"
    },
    {
      "inputs": [],
      "name": "propertyCounter",
      "outputs": [
        {
          "internalType": "uint256",
          "name": "",
          "type": "uint256"
        }
      ],
      "stateMutability": "view",
      "type": "function"
    },
    {
      "inputs": [
        {
          "internalType": "address",
          "name": "",
          "type": "address"
        }
      ],
      "name": "propertyOwnerReputation",
      "outputs": [
        {
          "internalType": "euint32",
          "name": "",
          "type": "bytes32"
        }
      ],
      "stateMutability": "view",
      "type": "function"
    },
    {
      "inputs": [],
      "name": "protocolId",
      "outputs": [
        {
          "internalType": "uint256",
          "name": "",
          "type": "uint256"
        }
      ],
      "stateMutability": "pure",
      "type": "function"
    },
    {
      "inputs": [],
      "name": "resultCounter",
      "outputs": [
        {
          "internalType": "uint256",
          "name": "",
          "type": "uint256"
        }
      ],
      "stateMutability": "view",
      "type": "function"
    },
    {
      "inputs": [
        {
          "internalType": "uint256",
          "name": "propertyId",
          "type": "uint256"
        },
        {
          "internalType": "uint256",
          "name": "resultId",
          "type": "uint256"
        }
      ],
      "name": "settleAuction",
      "outputs": [],
      "stateMutability": "nonpayable",
      "type": "function"
    },
    {
      "inputs": [
        {
          "internalType": "address",
          "name": "user",
          "type": "address"
        },
        {
          "internalType": "euint32",
          "name": "reputation",
          "type": "bytes32"
        }
      ],
      "name": "updateReputation",
      "outputs": [],
      "stateMutability": "nonpayable",
      "type": "function"
    },
    {
      "inputs": [],
      "name": "verifier",
      "outputs": [
        {
          "internalType": "address",
          "name": "",
          "type": "address"
        }
      ],
      "stateMutability": "view",
      "type": "function"
    },
    {
      "inputs": [
        {
          "internalType": "uint256",
          "name": "propertyId",
          "type": "uint256"
        },
        {
          "internalType": "bool",
          "name": "isVerified",
          "type": "bool"
        }
      ],
      "name": "verifyProperty",
      "outputs": [],
      "stateMutability": "nonpayable",
      "type": "function"
    }
  ],
  "bytecode": "0x608034620001ba57601f62001db538819003918201601f19168301916001600160401b03831184841017620001bf57808492602094604052833981010312620001ba57516001600160a01b03811690819003620001ba576000606062000064620001d5565b82815282602082015282604082015201526200007f620001d5565b606073687820221192c5b662b25367f70076a37bc79b6c9182815273848b0066793bcc60346da1f49049357399b8d59580602083015273a02cda4ca3a71d7c46997716f4283aa851c2881291826040820152731364cbbf2cdf5032c47d8226a6f6fbd2afcdacac938491015260018060a01b0319937f9e7b61f58c47dc699ac88507c4f5bb9f121c03808c5676a8078fe583e464970090858254161790557f9e7b61f58c47dc699ac88507c4f5bb9f121c03808c5676a8078fe583e464970190848254161790557f9e7b61f58c47dc699ac88507c4f5bb9f121c03808c5676a8078fe583e464970290838254161790557f9e7b61f58c47dc699ac88507c4f5bb9f121c03808c5676a8078fe583e46497039082825416179055338160085416176008556009541617600955604051611bbf9081620001f68239f35b600080fd5b634e487b7160e01b600052604160045260246000fd5b60405190608082016001600160401b03811183821017620001bf5760405256fe608080604052600436101561001357600080fd5b6000803560e01c91826303f69354146117ea57508163206a73c1146110625781632201db311461100b578163229f0b5c14610fee5781632b7ac3f314610fc65781632c8b251814610f9b578163322bb11614610e9f5781633ec04a7d14610a6e57816340f0a055146109715781634423c5f11461090f5781635618ff5f146108e6578163718cc402146101345781637aa9cb35146108ae57816389b3dd06146107615781638da5cb5b14610739578163a53df8fd14610701578163b9a2de3a146104d5578163c186f22814610480578163cedcea3f14610455578163d090e47e14610438578163da1f12ab1461041c578163dc1bf039146103c5578163e42aaa8f14610248578163f7b1080814610139575063f7dcf5771461013457600080fd5b6118fa565b346102455760203660031901126102455760043581528060205260409020805463ffffffff90816001840154169160028401549360038101546004820161017f90611959565b61018b60058401611959565b61019760068501611959565b91600160a01b6001900396876007870154169760088701541694600987015496600a0154976040519b8c9b6101a0948d5260208d015260408c0152811660608b01528060201c60ff16151560808b015260281c60ff16151560a08a01528060c08a01528801610205916118a4565b87810360e0890152610216916118a4565b868103610100880152610228916118a4565b936101208601526101408501526101608401526101808301520390f35b80fd5b3461024557604036600319011261024557600435808252602082815260408320600701546001600160a01b0392906024359084163303610380578085526002835260ff600160408720015460a01c1661033b5781855284835283600860408720015416156103025784526002808352604080862060018101805460ff60a01b1916600160a01b17905542920191909155908452908390528220600881015460079190910180546001600160a01b0319169190921617905580f35b60405162461bcd60e51b81526004810184905260116024820152702737903bb4b73734b733903134b23232b960791b6044820152606490fd5b60405162461bcd60e51b815260048101849052601760248201527f41756374696f6e20616c726561647920736574746c65640000000000000000006044820152606490fd5b60405162461bcd60e51b815260048101849052601d60248201527f4f6e6c79206f776e65722063616e20736574746c652061756374696f6e0000006044820152606490fd5b34610245576020366003190112610245576040608091600435815260026020522080549060ff600260018301549201549160405193845260018060a01b038116602085015260a01c16151560408301526060820152f35b3461024557806003193601126102455760206040516127118152f35b346102455780600319360112610245576020600554604051908152f35b3461024557602036600319011261024557600160406020926004358152828452200154604051908152f35b3461024557602036600319011261024557608090600435815260026020526040812060ff600260018301549201549160405193845260018060a01b038116602085015260a01c16151560408301526060820152f35b34610245576020806003193601126106fd5760043580835282825260408320600701546001600160a01b0390811633036106b85781845283835260ff6003604086200154841c161561067b57818452838352600a6040852001544211156106365760075490610543826119fe565b600755828552848452604085209181600860028501549401541660405191608083019183831067ffffffffffffffff841117610620577f53df60b99ed53c41b126ce9460096c46d8d4cdef0a71442750657426257a63319560029360405284528784019081526040840189815260608501928a84528a5283895260408a2094518555856001860192511682549160ff60a01b9051151560a01b16916affffffffffffffffffffff60a81b1617179055519101558285528484526008604086206003810164ff0000000019815416905501541692604051858152a380f35b634e487b7160e01b600052604160045260246000fd5b60405162461bcd60e51b815260048101849052601960248201527f41756374696f6e20686173206e6f7420656e64656420796574000000000000006044820152606490fd5b60405162461bcd60e51b815260048101849052601560248201527441756374696f6e206973206e6f742061637469766560581b6044820152606490fd5b60405162461bcd60e51b815260048101849052601a60248201527f4f6e6c79206f776e65722063616e20656e642061756374696f6e0000000000006044820152606490fd5b5080fd5b34610245576020366003190112610245576020906040906001600160a01b036107286118e4565b168152600383522054604051908152f35b346102455780600319360112610245576008546040516001600160a01b039091168152602090f35b346102455760403660031901126102455761077a6118e4565b6009546001600160a01b0391602435918316330361085d57821691821561082157600654600019810190811161080d578452600160205260408420600201541682036107fb57818352600360205260408320555b7fbc29a8e6655836a9c09ee2d874d0ec6df064e0b7d9d9dd0f097ad3f2874ed9866020604051848152a280f35b818352600460205260408320556107ce565b634e487b7160e01b85526011600452602485fd5b60405162461bcd60e51b8152602060048201526014602482015273496e76616c69642075736572206164647265737360601b6044820152606490fd5b60405162461bcd60e51b815260206004820152602360248201527f4f6e6c792076657269666965722063616e20757064617465207265707574617460448201526234b7b760e91b6064820152608490fd5b34610245576020366003190112610245576020906040906001600160a01b036108d56118e4565b168152600483522054604051908152f35b346102455760203660031901126102455760406020916004358152600283522054604051908152f35b3461024557602036600319011261024557604060a0916004358152600160205220805490600181015490600180851b0360028201541660ff60046003840154930154169260405194855260208501526040840152606083015215156080820152f35b3461024557602036600319011261024557600435815280602052610a0c604082209163ffffffff908160018501541691600385015460018060a01b0360ff816007890154169160088901541692600989015494600a8a015496610a288b610a1a6109f560066109ee60056109e760048701611959565b9501611959565b9f01611959565b916040519e8f9e8f926101808085528401906118a4565b9160208184039101526118a4565b8c810360408e0152906118a4565b9860608b015260808a0152811660a0890152818160201c16151560c089015260281c16151560e08701526101008601526101208501526101408401526101608301520390f35b34610245576060366003190112610245576044359060249060043567ffffffffffffffff808511610e9b5736602386011215610e9b57846004013593818511610e975736818688010111610e97578284526020848152604085206007015490966001600160a01b0391610ae49083161515611a23565b84865285885260ff6003604088200154891c1615610e5357848652858852600a6040872001544211610e1b57848652858852816007604088200154163314610dd9579087610b9e610b4988946006549a610b3d8c6119fe565b6006558736920161183a565b837f9e7b61f58c47dc699ac88507c4f5bb9f121c03808c5676a8078fe583e464970154169060405195868094819363196d0b9b60e01b83528a356004840152338b8401526080604484015260848301906118a4565b6004606483015203925af1918215610dce578692610d9b575b50807f9e7b61f58c47dc699ac88507c4f5bb9f121c03808c5676a8078fe583e46497005416803b15610d9757604051630f8e573b60e21b8152600481018490523360248201529087908290604490829084905af18015610d8c57610d79575b5063ffffffff93610c28858916611a6f565b6040519160a0830190811183821017610d6457928960048a98979694610cc09460039760405281528d80820187815260408084019c8d339052600160608601944286526080870198838a5283525220925183555194856001840155600283019b51169a6bffffffffffffffffffffffff60a01b9b8c8254161790555187820155019051151560ff801983541691161790553090611b0e565b87875260018952610cd833600160408a200154611b0e565b85875286895260408720906002820155019182549181831690828214610d525750600101169063ffffffff191617905581835282855260086040842001903390825416179055604051918252827fc59ab445a11a18e879a150587b466a0ca4905b2a1557f0a8c5746e803cabe6e2853394a4604051908152f35b634e487b7160e01b8852601160045287fd5b85634e487b7160e01b60005260416004526000fd5b610d8590969196611804565b9488610c16565b6040513d89823e3d90fd5b8680fd5b9091508781813d8311610dc7575b610db38183611818565b81010312610dc357519088610bb7565b8580fd5b503d610da9565b6040513d88823e3d90fd5b606483896040519162461bcd60e51b83528160048401528201527f4f776e65722063616e6e6f7420626964206f6e206f776e2070726f70657274796044820152fd5b60405162461bcd60e51b81526004810189905260118185015270105d58dd1a5bdb881a185cc8195b991959607a1b6044820152606490fd5b60405162461bcd60e51b815260048101899052601e818501527f50726f70657274792061756374696f6e206973206e6f742061637469766500006044820152606490fd5b8380fd5b8280fd5b346102455760403660031901126102455760043560243580151590818103610e97576009546001600160a01b03929083163303610f4a57610f40602092610f177fafdcc517a26e633f535aa9cebec29f4281ab2ffa922a475b12fd1297ad765bc895878952888652600760408a200154161515611a23565b858752868452600360408820019060ff60281b825491151560281b169060ff60281b1916179055565b604051908152a280f35b60405162461bcd60e51b815260206004820152602360248201527f4f6e6c792076657269666965722063616e207665726966792070726f7065727460448201526269657360e81b6064820152608490fd5b3461024557602036600319011261024557600260406020926004358152808452200154604051908152f35b346102455780600319360112610245576009546040516001600160a01b039091168152602090f35b346102455780600319360112610245576020600754604051908152f35b3461024557602036600319011261024557608090600435815260016020526040812060018060a01b036002820154169060ff6004600383015492015416916040519384526020840152604083015215156060820152f35b346102455760a03660031901126102455760043567ffffffffffffffff81116106fd57611093903690600401611886565b60243567ffffffffffffffff8111610e9b576110b3903690600401611886565b9060443567ffffffffffffffff8111610e97576110d4903690600401611886565b6064359063ffffffff821682036117e6578251156117a1576084351561175c5763ffffffff821615611717576005549361110d856119fe565b6005558561112063ffffffff8716611a6f565b93602060018060a01b037f9e7b61f58c47dc699ac88507c4f5bb9f121c03808c5676a8078fe583e46497015416604460405180958193639cd07acb60e01b8352816004840152600460248401525af191821561170c5788926116d4575b50608435420142116116c05760405194856101a081011067ffffffffffffffff6101a0880111176116ac579063ffffffff916101a0870160405286521660208501526040840152856060840152600160808401528560a08401528360c084015260e08301526101008201523361012082015283610140820152426101608201526084354201610180820152828452836020526040842090805182556001820163ffffffff60208301511663ffffffff19825416179055604081015160028301556112926003830163ffffffff60608401511681549064ff000000006080860151151560201b169164ffffffffff19161717815560a0830151151560ff60281b825491151560281b169060ff60281b1916179055565b60c081015180519067ffffffffffffffff82116115045781906112b8600486015461191f565b601f811161165c575b50602090601f83116001146115ed5788926115e2575b50508160011b916000199060031b1c19161760048301555b60e081015180519067ffffffffffffffff8211611504578190611315600586015461191f565b601f8111611592575b50602090601f8311600114611523578892611518575b50508160011b916000199060031b1c19161760058301555b61010081015180519067ffffffffffffffff821161150457611371600685015461191f565b601f81116114c0575b50956020968791601f84116001146114525792600a949281926101809592611447575b50508160011b916000199060031b1c19161760068501555b6101208101516007850180546001600160a01b039283166001600160a01b03199182161790915561014083015160088701805491909316911617905561016081015160098501550151910155604051838152339183917f61e22366f1dd402972b7fac9c9b73534fc1a7a60eb41141b60d9f2109495758391819061143c90888301906118a4565b0390a3604051908152f35b01519050898061139d565b9190601f198416600687018452898420935b8181106114a9575092600192859261018096600a989610611490575b505050811b0160068501556113b5565b015160001960f88460031b161c19169055898080611480565b92938a600181928786015181550195019301611464565b60068501885260208820601f840160051c8101602085106114fd575b601f830160051c820181106114f257505061137a565b8981556001016114dc565b50806114dc565b634e487b7160e01b87526041600452602487fd5b015190508780611334565b9250600585018852602088209088935b601f1984168510611577576001945083601f1981161061155e575b505050811b01600583015561134c565b015160001960f88460031b161c1916905587808061154e565b81810151835560209485019460019093019290910190611533565b90915060058501885260208820601f840160051c8101602085106115db575b90849392915b601f830160051c820181106115cd57505061131e565b8a81558594506001016115b7565b50806115b1565b0151905087806112d7565b9250600485018852602088209088935b601f1984168510611641576001945083601f19811610611628575b505050811b0160048301556112ef565b015160001960f88460031b161c19169055878080611618565b818101518355602094850194600190930192909101906115fd565b90915060048501885260208820601f840160051c8101602085106116a5575b90849392915b601f830160051c820181106116975750506112c1565b8a8155859450600101611681565b508061167b565b634e487b7160e01b89526041600452602489fd5b634e487b7160e01b88526011600452602488fd5b9091506020813d602011611704575b816116f060209383611818565b810103126117005751908861117d565b8780fd5b3d91506116e3565b6040513d8a823e3d90fd5b60405162461bcd60e51b815260206004820152601e60248201527f52657365727665207072696365206d75737420626520706f73697469766500006044820152606490fd5b60405162461bcd60e51b815260206004820152601960248201527f4475726174696f6e206d75737420626520706f736974697665000000000000006044820152606490fd5b60405162461bcd60e51b815260206004820152601d60248201527f50726f7065727479206e616d652063616e6e6f7420626520656d7074790000006044820152606490fd5b8480fd5b346106fd57816003193601126106fd576020906006548152f35b67ffffffffffffffff811161062057604052565b90601f8019910116810190811067ffffffffffffffff82111761062057604052565b92919267ffffffffffffffff82116106205760405191611864601f8201601f191660200184611818565b829481845281830111611881578281602093846000960137010152565b600080fd5b9080601f83011215611881578160206118a19335910161183a565b90565b919082519283825260005b8481106118d0575050826000602080949584010152601f8019910116010190565b6020818301810151848301820152016118af565b600435906001600160a01b038216820361188157565b34611881576020366003190112611881576119136118e4565b50602060405160008152f35b90600182811c9216801561194f575b602083101461193957565b634e487b7160e01b600052602260045260246000fd5b91607f169161192e565b9060405191826000825461196c8161191f565b908184526020946001916001811690816000146119dc575060011461199d575b50505061199b92500383611818565b565b600090815285812095935091905b8183106119c457505061199b935082010138808061198c565b855488840185015294850194879450918301916119ab565b9250505061199b94925060ff191682840152151560051b82010138808061198c565b6000198114611a0d5760010190565b634e487b7160e01b600052601160045260246000fd5b15611a2a57565b60405162461bcd60e51b815260206004820152601760248201527f50726f706572747920646f6573206e6f742065786973740000000000000000006044820152606490fd5b6020600091604460018060a01b037f9e7b61f58c47dc699ac88507c4f5bb9f121c03808c5676a8078fe583e46497015416916040519485938492639cd07acb60e01b84526004840152600460248401525af1908115611b0257600091611ad3575090565b90506020813d602011611afa575b81611aee60209383611818565b81010312611881575190565b3d9150611ae1565b6040513d6000823e3d90fd5b7f9e7b61f58c47dc699ac88507c4f5bb9f121c03808c5676a8078fe583e4649700546001600160a01b031691823b1561188157604051635ca4b5b160e11b815260048101929092526001600160a01b03166024820152906000908290604490829084905af18015611b0257611b805750565b61199b9061180456fea26469706673582212206607b3bfa26b40304651e90ecaff0d34953365a2e19ab3dcd455537d635da05764736f6c63430008180033",
  "linkReferences": {},
  "deployedLinkReferences": {}
}